:020000040800F2
:100000000000012025260008492400084F2400088C
:10001000552400085B24000861240008000000004B
:10002000000000000000000000000000672400083D
:1000300073240008000000007F2400088B240008BF
:100040007526000875260008752600087526000824
:100050007526000875260008752600087526000814
:100060007526000875260008752600087526000804
:1000700075260008752600087526000875260008F4
:1000800075260008752600087526000875260008E4
:100090000000000075260008752600087526000877
:1000A00075260008752600087526000875260008C4
:1000B00075260008752600087526000875260008B4
:1000C00075260008752600087526000875260008A4
:1000D0007526000875260008752600087526000894
:1000E0007526000875260008752600087526000884
:1000F00075260008000000000000000075260008BA
:100100007526000875260008752600087526000863
:100110007526000875260008752600087526000853
:100120007526000875260008752600087526000843
:08013000752600087526000881
:1001400010B5054C237833B9044B13B10448AFF311
:1001500000800123237010BDE0010020000000009A
:1001600074A3000808B5034B1BB103490348AFF360
:10017000008008BD00000000E401002074A3000816
:10018000034613F8012B002AFBD1181A01387047D7
:1001900001F0FF01102A2BDB10F0070F08D010F838
:1001A000013B013A8B422DD010F0070F42B3F6D13C
:1001B000F0B441EA012141EA014122F007047FF055
:1001C00000070023F0E80256083C85EA010586EAAC
:1001D000010685FA47F5A3FA87F586FA47F6A5FAE8
:1001E00087F68EB9EED1F0BC01F0FF0102F00702F4
:1001F00032B110F8013B013A83EA010313B1F8D19F
:100200000020704701387047002D06BF354603387F
:10021000073815F0010F07D1013015F4807F02BFB8
:10022000013015F4C03F0130F0BC0138704700BF09
:1002300081F0004102E000BF83F0004330B54FEA97
:1002400041044FEA430594EA050F08BF90EA020F04
:100250001FBF54EA000C55EA020C7FEA645C7FEA97
:10026000655C00F0E2804FEA5454D4EB5555B8BFBA
:100270006D420CDD2C4480EA020281EA030382EA2B
:10028000000083EA010180EA020281EA0303362DBD
:1002900088BF30BD11F0004F4FEA01314FF4801C90
:1002A0004CEA113102D0404261EB410113F0004FA2
:1002B0004FEA03334CEA133302D0524263EB430359
:1002C00094EA050F00F0A780A4F10104D5F1200EF7
:1002D0000DDB02FA0EFC22FA05F2801841F1000152
:1002E00003FA0EF2801843FA05F359410EE0A5F126
:1002F00020050EF1200E012A03FA0EFC28BF4CF057
:10030000020C43FA05F3C01851EBE37101F000450C
:1003100007D54FF0000EDCF1000C7EEB00006EEB19
:100320000101B1F5801F1BD3B1F5001F0CD34908A3
:100330005FEA30004FEA3C0C04F101044FEA4452FA
:1003400012F5800F80F09A80BCF1004F08BF5FEA81
:10035000500C50F1000041EB045141EA050130BD61
:100360005FEA4C0C404141EB0101013C28BFB1F573
:10037000801FE9D291F0000F04BF01460020B1FABE
:1003800081F308BF2033A3F10B03B3F120020CDA91
:100390000C3208DD02F1140CC2F10C0201FA0CF06F
:1003A00021FA02F10CE002F11402D8BFC2F1200CD4
:1003B00001FA02F120FA0CFCDCBF41EA0C0190408A
:1003C000E41AA2BF01EB0451294330BD6FEA0404D3
:1003D0001F3C1CDA0C340EDC04F11404C4F12002BE
:1003E00020FA04F001FA02F340EA030021FA04F3D0
:1003F00045EA030130BDC4F10C04C4F1200220FA27
:1004000002F001FA04F340EA0300294630BD21FA64
:1004100004F0294630BD94F0000F83F4801306BF2A
:1004200081F480110134013D4EE77FEA645C18BF1E
:100430007FEA655C29D094EA050F08BF90EA020FB5
:1004400005D054EA000C04BF1946104630BD91EAAD
:10045000030F1EBF0021002030BD5FEA545C05D1B0
:100460004000494128BF41F0004130BD14F58004EF
:100470003CBF01F5801130BD01F0004545F0FE4163
:1004800041F470014FF0000030BD7FEA645C1ABF98
:10049000194610467FEA655C1CBF0B46024650EACF
:1004A000013406BF52EA033591EA030F41F40021FB
:1004B00030BD00BF90F0000F04BF0021704730B581
:1004C0004FF4806404F132044FF000054FF0000156
:1004D00050E700BF90F0000F04BF0021704730B517
:1004E0004FF4806404F1320410F0004548BF4042EC
:1004F0004FF000013EE700BF42004FEAE2014FEA41
:1005000031014FEA02701FBF12F07F4393F07F4F1B
:1005100081F06051704732F07F4208BF704793F01E
:100520007F4F04BF41F40021704730B54FF4607431
:1005300001F0004521F000411CE700BF50EA010234
:1005400008BF704730B54FF000050AE050EA0102DD
:1005500008BF704730B511F0004502D5404261EB4D
:1005600041014FF4806404F132045FEA915C3FF48E
:10057000D8AE4FF003025FEADC0C18BF03325FEA2B
:10058000DC0C18BF033202EBDC02C2F1200300FADC
:1005900003FC20FA02F001FA03FE40EA0E0021FA01
:1005A00002F11444BDE600BF70B54FF0FF0C4CF4EF
:1005B000E06C1CEA11541DBF1CEA135594EA0C0FA1
:1005C00095EA0C0F00F0DEF82C4481EA030621EADC
:1005D0004C5123EA4C5350EA013518BF52EA033517
:1005E00041F4801143F4801338D0A0FB02CE4FF0C9
:1005F0000005E1FB02E506F00042E0FB03E54FF0F9
:100600000006E1FB03569CF0000F18BF4EF0010EF0
:10061000A4F1FF04B6F5007F64F5407404D25FEAEC
:100620004E0E6D4146EB060642EAC62141EA55519F
:100630004FEAC52040EA5E504FEACE2EB4F1FD0CE1
:1006400088BFBCF5E06F1ED8BEF1004F08BF5FEA5F
:10065000500E50F1000041EB045170BD06F0004611
:1006600046EA010140EA020081EA0301B4EB5C04BE
:10067000C2BFD4EB0C0541EA045170BD41F48011B6
:100680004FF0000E013C00F3AB8014F1360FDEBFDB
:10069000002001F0004170BDC4F10004203C35DAB7
:1006A0000C341BDC04F11404C4F1200500FA05F33A
:1006B00020FA04F001FA05F240EA020001F00042DB
:1006C00021F0004110EBD37021FA04F642EB060151
:1006D0005EEA430E08BF20EAD37070BDC4F10C047B
:1006E000C4F1200500FA04F320FA05F001FA04F23F
:1006F00040EA020001F0004110EBD37041F100012B
:100700005EEA430E08BF20EAD37070BDC4F1200535
:1007100000FA05F24EEA020E20FA04F301FA05F29D
:1007200043EA020321FA04F001F0004121FA04F245
:1007300020EA020000EBD3705EEA430E08BF20EA15
:10074000D37070BD94F0000F0FD101F0004640004F
:1007500041EB010111F4801F08BF013CF7D041EAD1
:10076000060195F0000F18BF704703F000465200D5
:1007700043EB030313F4801F08BF013DF7D043EAA6
:100780000603704794EA0C0F0CEA135518BF95EA5C
:100790000C0F0CD050EA410618BF52EA4306D1D1E3
:1007A00081EA030101F000414FF0000070BD50EA02
:1007B000410606BF1046194652EA430619D094EA8C
:1007C0000C0F02D150EA013613D195EA0C0F05D176
:1007D00052EA03361CBF104619460AD181EA0301CA
:1007E00001F0004141F0FE4141F470014FF0000082
:1007F00070BD41F0FE4141F4780170BD70B54FF01D
:10080000FF0C4CF4E06C1CEA11541DBF1CEA13559C
:1008100094EA0C0F95EA0C0F00F0A7F8A4EB05047E
:1008200081EA030E52EA03354FEA013100F0888075
:100830004FEA03334FF0805545EA131343EA12633E
:100840004FEA022245EA111545EA10654FEA0026F3
:100850000EF000419D4208BF964244F1FD0404F5AC
:10086000407402D25B084FEA3202B61A65EB030508
:100870005B084FEA32024FF480104FF4002CB6EBC5
:10088000020E75EB030E22BFB61A754640EA0C0045
:100890005B084FEA3202B6EB020E75EB030E22BF85
:1008A000B61A754640EA5C005B084FEA3202B6EBC6
:1008B000020E75EB030E22BFB61A754640EA9C0085
:1008C0005B084FEA3202B6EB020E75EB030E22BF55
:1008D000B61A754640EADC0055EA060E18D04FEA13
:1008E000051545EA16754FEA06164FEAC30343EAB3
:1008F00052734FEAC2025FEA1C1CC0D111F4801F80
:100900000BD141EA00014FF000004FF0004CB6E778
:1009100011F4801F04BF01430020B4F1FD0C88BF17
:10092000BCF5E06F3FF6AFAEB5EB030C04BFB6EB22
:10093000020C5FEA500C50F1000041EB045170BD15
:100940000EF0004E4EEA113114EB5C04C2BFD4EB42
:100950000C0541EA045170BD41F480114FF0000EC6
:10096000013C90E645EA060E8DE60CEA135594EA42
:100970000C0F08BF95EA0C0F3FF43BAF94EA0C0F45
:100980000AD150EA01347FF434AF95EA0C0F7FF4BA
:1009900025AF104619462CE795EA0C0F06D152EA0E
:1009A00003353FF4FDAE1046194622E750EA4106F2
:1009B00018BF52EA43067FF4C5AE50EA41047FF403
:1009C0000DAF52EA43057FF4EBAE12E74FF0FF3C68
:1009D00006E000BF4FF0010C02E000BF4FF0010C39
:1009E0004DF804CD4FEA410C7FEA6C5C4FEA430CB2
:1009F00018BF7FEA6C5C1BD001B050EA410C0CBF01
:100A000052EA430C91EA030F02BF90EA020F002062
:100A1000704710F1000F91EA030F58BF994208BFC9
:100A200090422CBFD8176FEAE37040F00100704786
:100A30004FEA410C7FEA6C5C02D150EA013C07D1DD
:100A40004FEA430C7FEA6C5CD6D152EA033CD3D028
:100A50005DF8040B704700BF8446104662468C4622
:100A60001946634600E000BF01B5FFF7B7FF002855
:100A700048BF10F1000F01BD4DF808EDFFF7F4FF7E
:100A80000CBF012000205DF808FB00BF4DF808ED09
:100A9000FFF7EAFF34BF012000205DF808FB00BF2C
:100AA0004DF808EDFFF7E0FF94BF012000205DF84E
:100AB00008FB00BF4DF808EDFFF7CEFF94BF012003
:100AC00000205DF808FB00BF4DF808EDFFF7C4FFFC
:100AD00034BF012000205DF808FB00BF4FEA410C45
:100AE0007FEA6C5C02D150EA013C0AD14FEA430C28
:100AF0007FEA6C5C02D152EA033C02D14FF0000065
:100B000070474FF0010070474FEA410212F50012A2
:100B100015D211D56FF47873B3EB625212D94FEA44
:100B2000C12343F0004343EA505311F0004F23FA2E
:100B300002F018BF404270474FF00000704750EA83
:100B4000013005D111F0004008BF6FF00040704740
:100B50004FF00000704700BF4A0011D212F500129A
:100B600011D20DD56FF47873B3EB62520ED44FEA05
:100B7000C12343F0004343EA505323FA02F0704785
:100B80004FF00000704750EA013002D14FF0FF30C3
:100B900070474FF0000070474FEA4102B2F1E04366
:100BA00024BFB3F5001CDCF1FE5C0DD901F0004C54
:100BB0004FEAC0024CEA5070B2F1004F40EB8300A4
:100BC00008BF20F00100704711F0804F21D113F1D0
:100BD0003872BCBF01F00040704741F480114FEA09
:100BE0005252C2F11802C2F1200C10FA0CF320FA92
:100BF00002F018BF40F001004FEAC1234FEAD323AF
:100C000003FA0CFC40EA0C0023FA02F34FEA430318
:100C1000CCE77FEA625307D150EA01331EBF4FF0A1
:100C2000FE4040F44000704701F0004040F0FE40BC
:100C300040F40000704700BF7BB972B90029BEBF05
:100C400000204FF0004106E008BF00281CBF6FF0F5
:100C500000414FF0FF3000F0F7B9ADF1080C6DE93D
:100C600004CE002909DB002B1ADB00F085F8DDF843
:100C700004E0DDE9022304B07047404261EB41012A
:100C8000002B1BDB00F078F8DDF804E0DDE902233F
:100C900004B0404261EB4101524263EB43037047B1
:100CA000524263EB430300F067F8DDF804E0DDE94E
:100CB000022304B0404261EB41017047524263EBB2
:100CC000430300F059F8DDF804E0DDE9022304B045
:100CD000524263EB4303704753B94AB9002908BF36
:100CE00000281CBF4FF0FF314FF0FF3000F0ACB9CF
:100CF000ADF1080C6DE904CE00F03EF8DDF804E03B
:100D0000DDE9022304B0704738B505460C46284695
:100D1000214600220023FFF7B9FE28B928462146C4
:100D2000BDE8384000F00AB8284604F1004100F060
:100D300005F8404261EB410138BD00BFD0B50C4B16
:100D4000002206460F46FFF72FFCFFF705FF04467B
:100D5000FFF7B0FB074B0022FFF726FC02460B46CD
:100D600030463946FFF768FAFFF7F6FE2146D0BD58
:100D70000000F03D0000F0412DE9F047089E0D46CF
:100D800004468846002B4DD18A42944668D9B2FA6F
:100D900082F252B101FA02F3C2F1200120FA01F10C
:100DA0000CFA02FC41EA030894404FEA1C45210C6E
:100DB000B8FBF5FE1FFA8CF705FB1E8341EA0343DF
:100DC0000EFB07F199420BD91CEB03030EF1FF3028
:100DD00080F01E81994240F21B81AEF1020E634405
:100DE0005B1AA4B2B3FBF5F005FB103344EA0344ED
:100DF00000FB07F7A7420AD91CEB040400F1FF33FC
:100E000080F00881A74240F2058164440238E41B67
:100E100040EA0E4000211EB1D4400023C6E9004341
:100E2000BDE8F0878B4208D9002E00F0EE8000214B
:100E3000C6E900050846BDE8F087B3FA83F100294A
:100E40004AD1AB4202D3824200F2F980841A65EBA8
:100E5000030301209846002EE2D0C6E90048DFE7F0
:100E600002B9FFDEB2FA82F2002A40F09180A1EBD3
:100E70000C054FEA1C471FFA8CFE0121B5FBF7F366
:100E800007FB1350250C45EA00450EFB03F0A84272
:100E900008D91CEB050503F1FF3802D2A84200F285
:100EA000CB8043462D1AA4B2B5FBF7F007FB1055D3
:100EB00044EA05440EFB00FEA64508D91CEB0404D9
:100EC00000F1FF3502D2A64500F2BB802846A4EB14
:100ED0000E0440EA03409EE7C1F120078B4022FA4E
:100EE00007FC4CEA030C20FA07F405FA01F31C4353
:100EF000FD404FEA1C4900FA01F3B5FBF9F8200C5C
:100F00001FFA8CFE09FB185540EA054508FB0EF058
:100F1000A84202FA01F20BD91CEB050508F1FF3AD1
:100F200080F08880A84240F28580A8F102086544DC
:100F30002D1AA4B2B5FBF9F009FB105544EA05459A
:100F400000FB0EFEAE4508D91CEB050500F1FF3491
:100F50006CD2AE456AD90238654440EA0840A0FB2D
:100F60000294A5EB0E05A542C846A64656D353D01B
:100F70005EB1B3EB080265EB0E0505FA07F722FA3E
:100F800001F3CD401F43C6E900750021BDE8F0879D
:100F9000C2F1200320FA03F10CFA02FC25FA03F354
:100FA00095400D434FEA1C471FFA8CFEB3FBF7F147
:100FB00007FB11302B0C43EA004301FB0EF0984273
:100FC00004FA02F408D91CEB030301F1FF382FD215
:100FD00098422DD9023963441B1AADB2B3FBF7F026
:100FE00007FB103345EA034500FB0EF3AB4208D97B
:100FF0001CEB050500F1FF3816D2AB4214D90238BC
:101000006544ED1A40EA014138E73146304607E7CA
:101010008646E5E61846FAE64B45A9D2B9EB020842
:1010200064EB0C0E0138A3E74046EAE7204694E75C
:101030004146D1E7D0467BE7023B654432E70846AC
:1010400009E76444023842E7704700BF80B58CB0BE
:1010500004AF4FF0FF330293192301933B460093F3
:1010600001238822EC21574801F09CFF3B461933AD
:101070004FF0FF3202920722019200930123E122F6
:10108000EC21504801F08EFF7B781B021AB23B78AE
:101090001BB213431BB29AB24B4B1A80FB781B0254
:1010A0001AB2BB781BB213431AB2484B1A807B7931
:1010B0001B021AB23B791BB213431AB2444B1A807B
:1010C000FB791B021AB27B791BB213431BB29AB293
:1010D000404B1A807B7A1B021AB2BB791BB21343B6
:1010E0001AB23D4B1A80FB7A1B021AB2BB7A1BB2B2
:1010F00013431AB2394B1A807B7B1B021AB23B7B1B
:101100001BB213431AB2364B1A80FB7B1B021AB276
:10111000BB7B1BB213431AB2324B1A807B7C1B027F
:101120001AB23B7C1BB213431AB22F4B1A80FB7CC2
:101130001B021AB2BB7C1BB213431AB22B4B1A8090
:101140007B7D1B021AB23B7D1BB213431AB2284BA4
:101150001A80FB7D1B021AB2BB7D1BB213431AB26D
:10116000244B1A803B7E9AB2234B1A80BB7E1B0213
:101170001AB27B7E1BB213431AB2204B1A80FB7E3D
:101180009AB21F4B1A803B7F1B011AB27B7F1BB2A6
:1011900003F00F031BB213431AB21A4B1A80BB7F22
:1011A0001B011AB27B7F1B09DBB21BB213431AB2BD
:1011B000154B1A80FB7F1AB2144B1A8000BF2037E0
:1011C000BD4680BD880200200C02002014020020D1
:1011D000160200200E020020180200201A02002031
:1011E0001C0200201E0200202002002022020020FB
:1011F00024020020260200201002002028020020E5
:10120000120200202A0200202C0200202E020020C0
:1012100090B589B004AF0446084611461A462346E5
:10122000FB710346BB710B467B7113463B71FFF7A5
:101230000DFF0023FB730023BB73B723FB734FF435
:101240007A7302930123019307F10F0300930123A3
:10125000E022EC21584801F091FD0346002B02D01A
:101260004FF0FF33A3E0642001F07CFA7B79FB733D
:101270004FF47A7302930123019307F10F03009354
:101280000123F222EC214C4801F078FD0346002BAB
:1012900002D04FF0FF338AE0642001F063FA4FF48C
:1012A0007A7302930123019307F10E030093012344
:1012B000F222EC21404801F075FEBA7BFB7B9A429A
:1012C00002D04FF0FF3372E097F820305B015AB242
:1012D00097F824309B005BB213435BB2DBB2FB7325
:1012E0004FF47A7302930123019307F10F030093E4
:1012F0000123F522EC21304801F040FD0346002B8C
:1013000002D04FF0FF3352E0642001F02BFA4FF48B
:101310007A7302930123019307F10E0300930123D3
:10132000F522EC21244801F03DFEBA7BFB7B9A427A
:1013300002D04FF0FF333AE0FB795B015AB2BB7940
:101340009B005BB213435AB297F9043013435BB26C
:10135000DBB2FB734FF47A7302930123019307F11D
:101360000F0300930123F422EC21134801F006FD42
:101370000346002B02D04FF0FF3318E0642001F049
:10138000F1F94FF47A7302930123019307F10E03ED
:1013900000930123F422EC21074801F003FEBA7BFD
:1013A000FB7B9A4202D04FF0FF3300E00023184647
:1013B0001437BD4690BD00BF8802002080B586B0BE
:1013C00004AF4FF47A730293012301931E4B0093F1
:1013D0000123D022EC211D4801F0E4FD1A4B1B78BB
:1013E000602B2AD14FF0FF330293082301933B4631
:1013F00000930123F722EC21144801F0D3FD3B7840
:101400001A037B781B011343BA781209D2B2134333
:101410000F4A1360FB781A033B791B0113437A7957
:101420001209D2B213430B4A1360BB791B02FA793B
:101430001343094A1360002301E04FF0FF331846BD
:101440000837BD4680BD00BFFC0100208802002097
:1014500004020020000200200802002080B487B0AF
:1014600000AF78607B68DA10184B1B885B00D31ADA
:10147000174AB2F9002002FB03F3DB127B617B68A1
:101480001B11124A12889B1A7A6812110F49098897
:10149000521A02FB03F31B130E4AB2F9002002FB9F
:1014A00003F39B133B617A693B6913440A4A136057
:1014B000094B1A6813469B00134480331B12FB60D0
:1014C000FB6818461C37BD4680BC70470C020020E4
:1014D0001402002016020020300200202DE9B04F37
:1014E000CAB000AFC7F80C01AE4B1B68DA171C4638
:1014F0001546B4F5FA3A45F1FF3BC7E948ABD7F8D2
:101500002421D7F8203103FB02F1D7F82421D7F8A2
:10151000203102FB03F3CA18D7F82031A3FB03895B
:1015200002EB09039946A04BB3F900301BB2DA175E
:10153000C7F8B830C7F8BC20D7E92E01034603FB33
:1015400009F20B4608FB03F313440246A8FB0221F1
:10155000C7F8C410C7F8C020D7F8C4201344C7F890
:10156000C430D7E93034C7E94634C7E946348F4B35
:10157000B3F900301BB2DA17C7F8B030C7F8B4209F
:10158000D7F82031D7E92C452A4602FB03F2D7F8D9
:101590002431214601FB03F31A44D7F820312146B8
:1015A000A3FB0131C7F80411C7F80031D7F80431A3
:1015B000D318C7F804314FF000004FF00001D7E90D
:1015C00040452B465904224641EAD231234658046D
:1015D000D7E9462314183C644B417B64D7E91034A7
:1015E000C7E94634724BB3F900301BB2DA17C7F8BB
:1015F000A830C7F8AC204FF000004FF00001D7F83A
:10160000A830D9000020D7E946231418BC634B4109
:10161000FB63D7E90E34C7E94634D7F82421D7F85D
:10162000203103FB02F1D7F82421D7F8203102FB47
:1016300003F3CA18D7F82031A3FB0331C7F8FC1015
:10164000C7F8F830D7F8FC30D318C7F8FC30594B3E
:10165000B3F900301BB2DA17C7F8A030C7F8A420DE
:10166000D7E93E342246D7E92889414601FB02F2F8
:101670004D4618462146034603FB05F31344024634
:101680004146A2FB0121C7F8F410C7F8F020D7F8B3
:10169000F4201344C7F8F4304FF000004FF000017D
:1016A000D7E93C452346180A2A4640EA02602B4601
:1016B0001912414BB3F900301BB2DA17C7F8983052
:1016C000C7F89C20D7F82031D7E926894A4602FB83
:1016D00003F2D7F82431444604FB03F31A44D7F845
:1016E00020314446A3FB0434C7F8EC40C7F8E83087
:1016F000D7F8EC30D318C7F8EC304FF000024FF0B9
:101700000003D7E93A894C462303C44643EA1C53F5
:101710004446220384183C6341EB03037B63D7E90F
:101720000C34C7E94834D7E9482303F50041C7F82A
:101730009410C7F89020214B1B889BB20022C7F859
:101740008830C7F88C20D7E924342246D7E922898B
:10175000414601FB02F24D4618462146034603FB73
:1017600005F3134402464146A2FB0121C7F8E410E9
:10177000C7F8E020D7F8E4201344C7F8E4304FF06E
:1017800000024FF00003D7E9384529464A102946A0
:10179000CB17C7E94823D7E94823134310D10023C7
:1017A00052E100BF30020020200200201E02002073
:1017B0001C0200201A020020180200200E02002045
:1017C000D7F80C31C3F58013DA17BB62FA62D7E998
:1017D0000A34C7E94434D7F810315B10C7F88430B5
:1017E000D7F81031DB07C7F88030D7E94623D7E9AF
:1017F00020010446A41ABC6761EB0303FB67D7E929
:101800001E4522462B46911839625B417B62D7E91F
:10181000082321465118B96129464B41FB614FF01D
:1018200000024FF00003D7E9068949468B01414683
:1018300043EA916341468A01414689183961494624
:1018400043EB010179614FF000024FF00003D7E94B
:10185000048949468B00C44643EA9C7341468A008A
:1018600010461946034622469B18BB600B462A4683
:1018700042EB0303FB604FF000024FF00003D7E997
:10188000028949468B00C44643EA9C7341468A005C
:1018900010461946034622469B183B672B460A46CC
:1018A00042EB03037B67D7E94823D7E91C01FFF725
:1018B000C3F902460B46C7E94423664BB3F900302F
:1018C0001BB2DA17BB66FA66D7E944234FF0000073
:1018D0004FF00001500B40EAC3405913D7E91A45B5
:1018E0002B4600FB03F2234603FB01F3134422467D
:1018F000A2FB0021C7F8DC10C7F8D820D7F8DC20FD
:101900001344C7F8DC30D7E944234FF000004FF010
:101910000001500B40EAC3405913D7E936452B4626
:1019200000FB03F2234603FB01F313442246A2FB10
:101930000021C7F8D410C7F8D020D7F8D42013441A
:10194000C7F8D4304FF000024FF00003D7E9344518
:1019500021464A0E204629460C4642EAC4124B163E
:10196000C7E948233C4BB3F900301BB2DA173B669A
:101970007A66D7F81031D7E918452A4602FB03F2F8
:10198000D7F81431214601FB03F31344D7F8102193
:101990002146A2FB0121C7F8CC10C7F8C820D7F810
:1019A000CC201344C7F8CC304FF000024FF00003B6
:1019B000D7E932452146CA0C204629460C4642EA60
:1019C0004432CB14C7E94623D7E94401D7E9482379
:1019D0008418BC6541EB0303FB65D7E94623D7E9CF
:1019E0001645214689183965294643EB0101796579
:1019F0004FF000004FF00001D7E914452346180AC4
:101A00002A4640EA02602B461912144BB3F9003003
:101A10001BB2DA17BB64FA644FF000024FF0000308
:101A2000D7E912894C462301C44643EA1C73444655
:101A3000220184183C6041EB03037B60D7E900344A
:101A4000C7E94434D7F81031184607F59477BD46F6
:101A5000BDE8B08F260200202402002022020020D0
:101A600080B485B000AF78602C4B1B68A3F596332B
:101A7000FB607B689A032A4BB3F900301B05D21A2E
:101A8000284BB3F900301946FB6801FB03F3D31A66
:101A900003F58043DB13244AB2F900201146FA68AB
:101AA00001FB02F29212214909880846F96800FBFD
:101AB00001F1C91201F5004101FB02F2921202F597
:101AC00000121B49B1F9001001FB02F202F50052AD
:101AD000921302FB03F3FB60FB68DB13FA68D2137B
:101AE00002FB03F3DB11134A128802FB03F31B1101
:101AF000FA68D31AFB60FB6823EAE373FB60FB68B8
:101B0000B3F1C85FA8BF4FF0C853FB60FB681B135D
:101B100018461437BD4680BC704700BF3002002015
:101B20002A0200202C0200202E0200201202002097
:101B3000280200201002002080B500AFFFF73EFC15
:101B40000346002B63D1394B1B68B3F5000F04D15A
:101B5000374B4FF000021A6016E0344B1B681846F2
:101B6000FFF77CFC03461846FEF7B4FC4FF000027A
:101B7000304BFEF743FE02460B4610461946FFF770
:101B80000BF803462A4A13602B4B1B68B3F5000F72
:101B900004D12A4B4FF000021A6016E0264B1B6856
:101BA0001846FFF79BFC03461846FEF783FC4FF0F0
:101BB0000002234BFEF722FE02460B461046194652
:101BC000FEF7EAFF03461D4A13601E4B1B68B3F580
:101BD000004F04D11C4B4FF000021A6023E0194B58
:101BE0001B681846FFF73CFF03461846FEF762FCE9
:101BF0004FF00002154BFEF701FE02460B46104661
:101C00001946FEF7C9FF03460F4A13600BE00E4B5F
:101C10004FF07E521A600C4B1B68084A1360074B4A
:101C20001B68034A136000BF80BD00BF0002002094
:101C30002804002000005940040200202C04002049
:101C40000000704008020020300400200000904096
:101C500080B485B000AF78604FF0B043DA6C4FF0DD
:101C6000B0417B681343CB644FF0B043DA6C7B68C0
:101C70001340FB60FB6800BF1437BD4680BC704753
:101C800080B582B002AF00F0F7FC00F035F800F04C
:101C9000C9F900F083F800F03BF900F077F900F0A3
:101CA000BBF800F0F7F8042301930023009303230B
:101CB000012205210220FFF7ABFAFFF73DFF084B99
:101CC0001B68084A1360084B1B68084A1360084BDE
:101CD0001B68084A13604FF4FA7000F043FDECE70C
:101CE00028040020340400202C04002038040020A4
:101CF000300400203C04002080B59AB000AF07F10A
:101D0000200348220021184603F018FF07F10803BA
:101D100000221A605A609A60DA601A615A611E4B9A
:101D20001B6823F4C0631C4A43F4806313601A4B9E
:101D30001B6803F4C0637B607B6820233B62012344
:101D40003B6400237B646023BB640023FB6407F1D6
:101D50002003184602F018F80346002B01D000F0CB
:101D6000C1F94F23BB600023FB6000233B610023CC
:101D70007B610023BB610023FB6107F108030021A5
:101D8000184602F083FB0346002B01D000F0AAF9AD
:101D900000BF6837BD4680BD0004005880B500AF65
:101DA0001B4B1C4A1A601A4B40F614625A60184BBF
:101DB00000229A60164B0122DA60154B00221A614C
:101DC000134B00225A61124B00229A61104B0022E1
:101DD000DA610F4B00221A620D4800F040FF034603
:101DE000002B01D000F07EF90021094801F08CFCA5
:101DF0000346002B01D000F075F90021044801F0E2
:101E0000CDFC0346002B01D000F06CF900BF80BD73
:101E1000340200200054004080B500AF1B4B1C4A28
:101E20001A601A4B40F614625A60184B00229A60EE
:101E3000164B0122DA60154B00221A61134B002267
:101E40005A61124B00229A61104B0022DA610F4B4B
:101E500000221A620D4800F002FF0346002B01D059
:101E600000F040F90021094801F04EFC0346002B28
:101E700001D000F037F90021044801F08FFC03463F
:101E8000002B01D000F02EF900BF80BD8802002099
:101E90000058004080B500AF1B4B1C4A1A601A4B1B
:101EA00040F614625A60184B00229A60164B0122C9
:101EB000DA60154B00221A61134B00225A61124B53
:101EC00000229A61104B0022DA610F4B00221A6245
:101ED0000D4800F0C4FE0346002B01D000F002F9CB
:101EE0000021094801F010FC0346002B01D000F04E
:101EF000F9F80021044801F051FC0346002B01D001
:101F000000F0F0F800BF80BDDC020020005C004063
:101F100080B500AF1B4B1C4A1A601A4B4FF48272FB
:101F20005A60184B00229A60164B4FF44072DA60E8
:101F3000144B00221A61134B00225A61114B4FF4CB
:101F400000729A610F4B0022DA610E4B00221A6276
:101F50000C4B00225A620B4B00229A62094B07225B
:101F6000DA62084B00221A63064B08225A630548BE
:101F700002F048FF0346002B01D000F0B3F800BF89
:101F800080BD00BF300300200030014080B500AFAD
:101F9000224B234A1A60214B4FF4E1325A601F4B07
:101FA00000229A601D4B0022DA601C4B00221A614D
:101FB0001A4B0C225A61194B00229A61174B0022CE
:101FC000DA61164B00221A62144B00225A62134B3C
:101FD00000229A62114803F00AF80346002B01D050
:101FE00000F080F800210D4803F0B5FC0346002BFB
:101FF00001D000F077F80021084803F0EAFC03461E
:10200000002B01D000F06EF8044803F06CFC03468E
:10201000002B01D000F066F800BF80BD94030020C3
:102020000038014080B586B000AF3B1D00221A6029
:102030005A609A60DA601A610220FFF709FE0120F7
:10204000FFF706FE00222021254800F0F1FD0022C6
:102050004FF48061224800F0EBFD00224FF4007144
:102060004FF0904000F0E4FD20237B600123BB6033
:102070000023FB6000233B613B1D1946184800F01C
:1020800077FC4FF400737B600123BB600023FB608F
:1020900000233B613B1D19464FF0904000F068FC67
:1020A00001224FF400714FF0904000F0C1FD4FF459
:1020B00080637B600123BB600023FB6000233B61E6
:1020C0003B1D1946064800F053FC01224FF4806185
:1020D000034800F0ADFD00BF1837BD4680BD00BF0E
:1020E0000004004880B400AF72B600BFFEE780B4C1
:1020F00085B000AF78604FF0B043DA6C4FF0B0417C
:102100007B681343CB644FF0B043DA6C7B681340B9
:10211000FB60FB6800BF1437BD4680BC704780B4CD
:1021200085B000AF78604FF0B0439A6D4FF0B0418A
:102130007B6813438B654FF0B0439A6D7B68134007
:10214000FB60FB6800BF1437BD4680BC704780B49D
:1021500085B000AF78604FF0B0431A6E4FF0B041D9
:102160007B6813430B664FF0B0431A6E7B681340D5
:10217000FB60FB6800BF1437BD4680BC704780B46D
:1021800000AF00BFBD4680BC7047000080B596B070
:1021900000AF786007F1440300221A605A609A6029
:1021A000DA601A6107F10C0338220021184603F0A7
:1021B000C5FC7B681B684F4A934227D14023FB60D4
:1021C0004FF440333B6207F10C03184602F000FD68
:1021D0000346002B01D0FFF785FF0220FFF787FFA2
:1021E0004FF4C0737B641223BB640023FB640023A1
:1021F0003B6504237B6507F1440319463E4800F024
:10220000B7FB4FF40010FFF78AFF6EE07B681B6896
:102210003A4A93423CD18023FB604FF440237B62D7
:1022200007F10C03184602F0D3FC0346002B01D043
:10223000FFF758FF0120FFF75AFF0220FFF757FF73
:102240004FF400437B641223BB640023FB64002330
:102250003B6504237B6507F1440319464FF090402A
:1022600000F086FB4FF400437B641223BB64002321
:10227000FB6400233B6504237B6507F14403194697
:102280001D4800F075FB4FF48000FFF748FF2CE07D
:102290007B681B681A4A934227D14FF48073FB6016
:1022A0004FF44013BB6207F10C03184602F090FC98
:1022B0000346002B01D0FFF715FF0220FFF717FFA1
:1022C00042F210037B641223BB640023FB640023EF
:1022D0003B6504237B6507F144031946064800F07B
:1022E00047FB4FF40000FFF71AFF00BF5837BD4609
:1022F00080BD00BF0054004000040048005800406A
:10230000005C004080B588B000AF786007F10C0336
:1023100000221A605A609A60DA601A617B681B6852
:10232000194A93422BD14FF48050FFF710FF012040
:10233000FFF7DDFE0220FFF7DAFE4FF4C053FB602B
:1023400002233B6100237B610023BB610523FB610A
:1023500007F10C0319464FF0904000F009FB0823E9
:10236000FB6002233B6100237B610023BB610523EB
:10237000FB6107F10C031946044800F0F9FA00BFAD
:102380002037BD4680BD00BF00300140000400483A
:1023900080B596B000AF786007F1440300221A6060
:1023A0005A609A60DA601A6107F10C033822002142
:1023B000184603F0C3FB7B681B68214A93423AD15D
:1023C0000123FB604FF440333B6107F10C031846D7
:1023D00002F0FEFB0346002B01D0FFF783FE4FF413
:1023E0008040FFF7B4FE0120FFF781FE0220FFF7D7
:1023F0007EFE4FF480637B640223BB640023FB6496
:1024000000233B6507237B6507F1440319464FF022
:10241000904000F0ADFA40237B640223BB640023AC
:10242000FB6400233B6507237B6507F144031946E2
:10243000044800F09DFA00BF5837BD4680BD00BF7C
:10244000003801400004004880B400AFFEE780B4CB
:1024500000AFFEE780B400AFFEE780B400AFFEE758
:1024600080B400AFFEE780B400AF00BFBD4680BCC3
:10247000704780B400AF00BFBD4680BC704780B4D9
:1024800000AF00BFBD4680BC704780B500AF00F014
:102490004DF900BF80BD80B400AF01231846BD4692
:1024A00080BC704780B582B000AF7860396003F0BF
:1024B0001BFB034616221A604FF0FF3318460837FD
:1024C000BD4680BD80B582B000AF78604FF0FF316F
:1024D0007868FFF7E7FFFEE780B586B000AFF860E9
:1024E000B9607A6000237B610AE0AFF300800146A7
:1024F000BB685A1CBA60CAB21A707B6901337B612F
:102500007A697B689A42F0DB7B6818461837BD46CB
:1025100080BD80B586B000AFF860B9607A600023F6
:102520007B6109E0BB685A1CBA601B781846AFF3A0
:1025300000807B6901337B617A697B689A42F1DBB9
:102540007B6818461837BD4680BD80B483B000AFA5
:1025500078604FF0FF3318460C37BD4680BC70479B
:1025600080B483B000AF786039603B684FF40052AC
:102570005A60002318460C37BD4680BC704780B4B3
:1025800083B000AF7860012318460C37BD4680BC8D
:10259000704780B485B000AFF860B9607A600023FE
:1025A00018461437BD4680BC7047000080B586B021
:1025B00000AF7860144A154BD31A7B617B693B618D
:1025C000134B1B68002B02D1114B124A1A60104B9F
:1025D0001A687B6813443A699A4207D203F084FA76
:1025E00003460C221A604FF0FF3309E0084B1B68CA
:1025F000FB60074B1A687B681344054A1360FB684D
:1026000018461837BD4680BD0000012000040000B8
:10261000400400205804002080B400AF00BFBD4635
:1026200080BC70470D488546FFF7F6FF0C480D4902
:102630000D4A002302E0D458C4500433C4188C421D
:10264000F9D30A4A0A4C002301E013600432A24283
:10265000FBD303F04FFAFFF713FBFEE70000012066
:1026600000000020E00100202CA90008E00100206B
:1026700058040020FEE7000080B582B000AF0023C0
:10268000FB71032000F042F902F0C4F80346094A46
:1026900013600F2000F010F80346002B02D0012336
:1026A000FB7101E0FFF76BFDFB7918460837BD466B
:1026B00080BD00BF0000002080B584B000AF78600E
:1026C0000023FB73174B1B78002B24D002F0A2F8D9
:1026D0000246144B1B7819464FF47A73B3FBF1F39F
:1026E000B2FBF3F3184600F036F90346002B0FD186
:1026F0007B680F2B09D8002279684FF0FF3000F07B
:1027000010F9094A7B68136007E00123FB7304E0BA
:102710000123FB7301E00123FB73FB7B1846103799
:10272000BD4680BD080000200400002080B400AF3A
:10273000054B1B781A46054B1B681344034A13606C
:1027400000BFBD4680BC7047080000204404002044
:1027500080B400AF024B1B681846BD4680BC704772
:102760004404002080B584B000AF7860FFF7F0FF2C
:10277000B8607B68FB60FB68B3F1FF3F05D00A4B94
:102780001B781A46FB681344FB6000BFFFF7E0FFAD
:102790000246BB68D31AFA689A42F7D800BF00BF56
:1027A0001037BD4680BD00BF0800002080B485B052
:1027B00000AF78607B6803F00703FB600C4BDB68BD
:1027C000BB60BA684FF6FF031340BB60FB681A0298
:1027D000BB68134343F0BF6343F40033BB60044A58
:1027E000BB68D36000BF1437BD4680BC704700BFD4
:1027F00000ED00E080B400AF044BDB681B0A03F07F
:1028000007031846BD4680BC704700BF00ED00E0DE
:1028100080B483B000AF03463960FB7197F907308D
:10282000002B0ADB3B68DAB20C4997F9073012013A
:10283000D2B20B4483F800230AE03B68DAB20849BD
:10284000FB7903F00F03043B1201D2B20B441A765A
:1028500000BF0C37BD4680BC704700BF00E100E000
:1028600000ED00E080B489B000AFF860B9607A6034
:10287000FB6803F00703FB61FB69C3F10703042B4B
:1028800028BF0423BB61FB690433062B02D9FB6913
:10289000033B00E000237B614FF0FF32BB6902FA8B
:1028A00003F3DA43BB681A407B699A404FF0FF316B
:1028B0007B6901FA03F3D9437B680B401343184645
:1028C0002437BD4680BC704780B582B000AF7860C9
:1028D0007B68013BB3F1807F01D301230FE00A4AFB
:1028E0007B68013B53600F214FF0FF30FFF790FFF3
:1028F000054B00229A60044B07221A6000231846F9
:102900000837BD4680BD00BF10E000E080B582B052
:1029100000AF78607868FFF749FF00BF0837BD4611
:1029200080BD80B586B000AF0346B9607A60FB73A6
:10293000FFF760FF78617A68B9687869FFF792FFFE
:10294000024697F90F3011461846FFF761FF00BFA6
:102950001837BD4680BD80B582B000AF786078681A
:10296000FFF7B2FF034618460837BD4680BD00009A
:1029700080B487B000AF7860396000237B6140E1AC
:102980003B681A6801217B6901FA03F31340FB607D
:10299000FB68002B00F032813B685B6803F00303A7
:1029A000012B05D03B685B6803F00303022B30D199
:1029B0007B689B683B617B695B00032202FA03F33F
:1029C000DB433A6913403B613B68DA687B695B0033
:1029D00002FA03F33A6913433B617B683A699A60F0
:1029E0007B685B683B6101227B6902FA03F3DB438E
:1029F0003A6913403B613B685B681B0903F00102C5
:102A00007B6902FA03F33A6913433B617B683A69D5
:102A10005A603B685B6803F00303032B17D07B68A5
:102A2000DB683B617B695B00032202FA03F3DB4353
:102A30003A6913403B613B689A687B695B0002FA24
:102A400003F33A6913433B617B683A69DA603B6898
:102A50005B6803F00303022B23D17B69DA087B68F0
:102A6000083253F822303B617B6903F007039B0077
:102A70000F2202FA03F3DB433A6913403B613B68E0
:102A80001A697B6903F007039B0002FA03F33A69B2
:102A900013433B617B69DA087B680832396943F884
:102AA00022107B681B683B617B695B00032202FA92
:102AB00003F3DB433A6913403B613B685B6803F017
:102AC00003027B695B0002FA03F33A6913433B613B
:102AD0007B683A691A603B685B6803F44033002BFB
:102AE00000F08C804E4A7B699B08023352F82330F9
:102AF0003B617B6903F003039B00072202FA03F3A7
:102B0000DB433A6913403B617B68B3F1904F0DD0D2
:102B10007B68444A934207D07B68434A934201D181
:102B2000022304E0072302E0012300E000237A6986
:102B300002F00302920093403A6913433B61384923
:102B40007B699B0802333A6941F82320374B1B68A5
:102B50003B61FB68DB433A6913403B613B685B6860
:102B600003F48013002B03D03A69FB6813433B61E5
:102B70002E4A3B6913602D4B5B683B61FB68DB436E
:102B80003A6913403B613B685B6803F40013002B18
:102B900003D03A69FB6813433B61244A3B695360A5
:102BA000224BD3F880303B61FB68DB433A6913402A
:102BB0003B613B685B6803F48033002B03D03A69C8
:102BC000FB6813433B61194A3B69C2F88030174BDD
:102BD000D3F884303B61FB68DB433A6913403B61C7
:102BE0003B685B6803F40033002B03D03A69FB6851
:102BF00013433B610D4A3B69C2F884307B69013362
:102C00007B613B681A687B6922FA03F3002B7FF42F
:102C1000B7AE00BF00BF1C37BD4680BC704700BFC9
:102C20000000014000040048000800480008005867
:102C300080B483B000AF78600B467B8013467B7016
:102C40007B78002B03D07A887B689A6102E07A88CF
:102C50007B689A6200BF0C37BD4680BC704780B568
:102C600082B000AF78607B68002B01D1012381E046
:102C70007B6893F84130DBB2002B06D17B680022E1
:102C800083F840207868FFF781FA7B68242283F874
:102C900041207B681B681A687B681B6822F0010270
:102CA0001A607B685A687B681B6822F070621A6140
:102CB0007B681B689A687B681B6822F400429A60F4
:102CC0007B68DB68012B07D17B689A687B681B688F
:102CD00042F400429A6006E07B689A687B681B6851
:102CE00042F404429A607B68DB68022B04D17B6863
:102CF0001B684FF400625A607B681B685B687A68E7
:102D0000126843F0007343F4004353607B681B6810
:102D1000DA687B681B6822F40042DA607B681A6913
:102D20007B685B6942EA03017B689B691A027B68E6
:102D30001B680A43DA607B68D9697B681A6A7B681A
:102D40001B680A431A607B681B681A687B681B68EB
:102D500042F001021A607B6800225A647B682022DC
:102D600083F841207B6800221A637B68002283F885
:102D70004220002318460837BD4680BD80B588B084
:102D800002AFF860084611461A4603467B810B469F
:102D90003B811346FB80FB6893F84130DBB2202B6C
:102DA00040F0F9803B6A002B02D0BB8C002B05D190
:102DB000FB684FF400725A640123EDE0FB6893F85E
:102DC0004030012B01D10223E6E0FB68012283F8A9
:102DD0004020FFF7BDFC78617B6900931923012235
:102DE0004FF40041F86800F0C2FA0346002B01D00E
:102DF0000123D1E0FB68212283F84120FB684022B7
:102E000083F84220FB6800225A64FB683A6A5A62DF
:102E1000FB68BA8C5A85FB6800225A63F8883A89A5
:102E200079897B690193BB6A00930346F86800F0D7
:102E3000D3F90346002B05D0FB68002283F840201D
:102E40000123A9E0FB685B8D9BB2FF2B0ED9FB68C9
:102E5000FF221A85FB681B8DDAB279890023009363
:102E60004FF08073F86800F01FFC0FE0FB685B8D8B
:102E70009AB2FB681A85FB681B8DDAB27989002348
:102E800000934FF00073F86800F00EFC7A69B96A9D
:102E9000F86800F0ACFA0346002B01D001237BE078
:102EA000FB685B6A1A78FB681B689A62FB685B6A5E
:102EB0005A1CFB685A62FB685B8D9BB2013B9AB25D
:102EC000FB685A85FB681B8D013B9AB2FB681A852B
:102ED000FB685B8D9BB2002B34D0FB681B8D002BF5
:102EE00030D17B690093BB6A00228021F86800F032
:102EF0003EFA0346002B01D001234DE0FB685B8DB9
:102F00009BB2FF2B0ED9FB68FF221A85FB681B8D35
:102F1000DAB27989002300934FF08073F86800F0EB
:102F2000C3FB0FE0FB685B8D9AB2FB681A85FB68F8
:102F30001B8DDAB27989002300934FF00073F86893
:102F400000F0B2FBFB685B8D9BB2002B9ED17A69CF
:102F5000B96AF86800F08BFA0346002B01D0012310
:102F60001AE0FB681B682022DA61FB681B6859685D
:102F7000FB681A680A4B0B405360FB68202283F8F9
:102F80004120FB68002283F84220FB68002283F87E
:102F90004020002300E0022318461837BD4680BDBC
:102FA00000E800FE80B588B002AFF8600846114620
:102FB0001A4603467B810B463B811346FB80FB6828
:102FC00093F84130DBB2202B40F0FD803B6A002BB0
:102FD00002D0BB8C002B05D1FB684FF400725A6401
:102FE0000123F1E0FB6893F84030012B01D102236B
:102FF000EAE0FB68012283F84020FFF7A9FB786133
:103000007B690093192301224FF40041F86800F016
:10301000AEF90346002B01D00123D5E0FB68222244
:1030200083F84120FB68402283F84220FB6800229D
:103030005A64FB683A6A5A62FB68BA8C5A85FB6824
:1030400000225A63F8883A8979897B690193BB6ABF
:1030500000930346F86800F013F90346002B05D0EF
:10306000FB68002283F840200123ADE0FB685B8D04
:103070009BB2FF2B0ED9FB68FF221A85FB681B8DC4
:10308000DAB27989524B00934FF08073F86800F000
:103090000BFB0FE0FB685B8D9AB2FB681A85FB683F
:1030A0001B8DDAB279894A4B00934FF00073F868B0
:1030B00000F0FAFA7B690093BB6A00220421F868E9
:1030C00000F055F90346002B01D001237CE0FB689A
:1030D0001B685A6AFB685B6AD2B21A70FB685B6A4B
:1030E0005A1CFB685A62FB681B8D013B9AB2FB6855
:1030F0001A85FB685B8D9BB2013B9AB2FB685A85CF
:10310000FB685B8D9BB2002B34D0FB681B8D002BC2
:1031100030D17B690093BB6A00228021F86800F0FF
:1031200026F90346002B01D001234DE0FB685B8D9F
:103130009BB2FF2B0ED9FB68FF221A85FB681B8D03
:10314000DAB27989002300934FF08073F86800F0B9
:10315000ABFA0FE0FB685B8D9AB2FB681A85FB68DF
:103160001B8DDAB27989002300934FF00073F86861
:1031700000F09AFAFB685B8D9BB2002B9AD17A69BA
:10318000B96AF86800F073F90346002B01D00123F7
:103190001AE0FB681B682022DA61FB681B6859682B
:1031A000FB681A680B4B0B405360FB68202283F8C6
:1031B0004120FB68002283F84220FB68002283F84C
:1031C0004020002300E0022318461837BD4680BD8A
:1031D0000024008000E800FE80B586B002AFF860F1
:1031E000084611461A4603467B810B463B8113462F
:1031F000FB80FB88DAB27989204B00934FF0807313
:10320000F86800F051FAFA69B969F86800F0EFF867
:103210000346002B01D001232CE0FB88012B05D1B4
:103220003B89DAB2FB681B689A6215E03B891B0A8E
:103230009BB2DAB2FB681B689A62FA69B969F868EE
:1032400000F0D5F80346002B01D0012312E03B89A2
:10325000DAB2FB681B689A62FB690093BB690022C3
:103260008021F86800F083F80346002B01D0012389
:1032700000E0002318461037BD4680BD00200080C6
:1032800080B586B002AFF860084611461A4603467C
:103290007B810B463B811346FB80FB88DAB2798940
:1032A000204B00930023F86800F0FEF9FA69B96931
:1032B000F86800F09CF80346002B01D001232CE0B5
:1032C000FB88012B05D13B89DAB2FB681B689A6247
:1032D00015E03B891B0A9BB2DAB2FB681B689A6255
:1032E000FA69B969F86800F082F80346002B01D04A
:1032F000012312E03B89DAB2FB681B689A62FB6922
:103300000093BB6900224021F86800F030F80346C2
:10331000002B01D0012300E0002318461037BD46E2
:1033200080BD00BF0020008080B483B000AF786013
:103330007B681B689B6903F00203022B03D17B6847
:103340001B6800229A627B681B689B6903F001037B
:10335000012B07D07B681B689A697B681B6842F069
:1033600001029A6100BF0C37BD4680BC704780B532
:1033700084B000AFF860B9603B601346FB7122E097
:103380003B68B3F1FF3F1ED0FFF7E2F90246BB698D
:10339000D31A3A689A4202D33B68002B13D1FB68D8
:1033A0005B6C43F02002FB685A64FB68202283F8C0
:1033B0004120FB68002283F84220FB68002283F84A
:1033C000402001230FE0FB681B689A69BB6813402B
:1033D000BA689A420CBF01230023DBB21A46FB797C
:1033E0009A42CDD0002318461037BD4680BD80B527
:1033F00084B000AFF860B9607A602CE07A68B96890
:10340000F86800F071F80346002B01D001232AE090
:10341000BB68B3F1FF3F1ED0FFF79AF902467B6805
:10342000D31ABA689A4202D3BB68002B13D1FB6847
:103430005B6C43F02002FB685A64FB68202283F82F
:103440004120FB68002283F84220FB68002283F8B9
:103450004020012307E0FB681B689B6903F002031F
:10346000022BCBD1002318461037BD4680BD80B556
:1034700084B000AFF860B9607A6028E07A68B96813
:10348000F86800F031F80346002B01D0012326E054
:10349000FFF75EF902467B68D31ABA689A4202D3F4
:1034A000BB68002B13D1FB685B6C43F02002FB6808
:1034B0005A64FB68202283F84120FB68002283F8CD
:1034C0004220FB68002283F84020012307E0FB68CC
:1034D0001B689B6903F02003202BCFD100231846E3
:1034E0001037BD4680BD000080B58AB000AFF860DF
:1034F000B9607A60002387F82730FB681B689B69F6
:10350000BB6100233B627B68FB61BB6903F0100376
:10351000002B68D0FB681B681022DA6149E0BB68A9
:10352000B3F1FF3F45D0FFF713F90246FB69D31A09
:10353000BA689A4202D3BB68002B3AD1FB681B6879
:103540005B6803F480437B61FB6893F84230FB7453
:10355000FB681B689B6903F40043B3F5004F21D15E
:103560007B69B3F5804F1DD0FB7C202B1AD0FB6804
:103570001B685A68FB681B6842F480425A60FFF778
:10358000E7F8F8610EE0FFF7E3F80246FB69D31AAB
:10359000192B07D93B6A43F020033B62012387F8CC
:1035A000273006E0FB681B689B6903F02003202B93
:1035B000E9D1FB681B689B6903F02003202B03D033
:1035C00097F82730002BAAD097F82730002B03D18B
:1035D000FB681B682022DA613B6A43F004033B620C
:1035E000012387F82730FB681B689B69BB61BB69B7
:1035F00003F48073002B0BD03B6A43F001033B6262
:10360000FB681B684FF48072DA61012387F827306A
:10361000BB6903F48063002B0BD03B6A43F00803C3
:103620003B62FB681B684FF48062DA61012387F814
:103630002730BB6903F40073002B0BD03B6A43F0C7
:1036400002033B62FB681B684FF40072DA610123DE
:1036500087F8273097F82730002B1CD0F868FFF741
:1036600063FEFB681B685968FB681A680D4B0B40CA
:103670005360FB685A6C3B6A1A43FB685A64FB68E8
:10368000202283F84120FB68002283F84220FB6857
:10369000002283F8402097F8273018462837BD4687
:1036A00080BD00BF00E800FE80B487B000AFF860C6
:1036B0007B600B467B8113467B727B89C3F30902D7
:1036C0007B7A1B0403F47F031A437B681A433B6A2B
:1036D000134323F000437B61FB681B685A683B6A15
:1036E0005B0D03F48061074B0B43DB4302EA0301EC
:1036F000FB681B687A690A435A6000BF1C37BD46E5
:1037000080BC7047FF63FF0380B483B000AF786074
:1037100039607B6893F84130DBB2202B38D17B686D
:1037200093F84030012B01D1022332E07B68012263
:1037300083F840207B68242283F841207B681B6843
:103740001A687B681B6822F001021A607B681B689C
:103750001A687B681B6822F480521A607B681B68B9
:1037600019687B681B683A680A431A607B681B68A3
:103770001A687B681B6842F001021A607B6820228D
:1037800083F841207B68002283F84020002300E07A
:10379000022318460C37BD4680BC704780B485B004
:1037A00000AF786039607B6893F84130DBB2202B42
:1037B00039D17B6893F84030012B01D1022333E0EB
:1037C0007B68012283F840207B68242283F8412013
:1037D0007B681B681A687B681B6822F001021A600C
:1037E0007B681B681B68FB60FB6823F47063FB60ED
:1037F0003B681B02FA681343FB607B681B68FA682E
:103800001A607B681B681A687B681B6842F00102BB
:103810001A607B68202283F841207B68002283F8AD
:103820004020002300E0022318461437BD4680BC28
:103830007047000080B400AF044B1B68034A43F498
:103840008073136000BFBD4680BC70470004005801
:1038500080B400AF034B1B6803F4C0631846BD4639
:1038600080BC70470004005880B400AF064B1B6852
:1038700003F48073B3F5807F01D1012300E00023BE
:103880001846BD4680BC70470004005880B400AFA5
:103890004FF0B0431B684FF0B04243F40013136085
:1038A00000BFBD4680BC704780B400AF4FF0B0434E
:1038B0001B684FF0B04223F40013136000BFBD46F5
:1038C00080BC704780B400AF4FF0B0431B6803F476
:1038D0008013B3F5801F01D1012300E000231846B7
:1038E000BD4680BC704780B400AF4FF0B0431B684A
:1038F0004FF0B04243F48033136000BFBD4680BC3C
:10390000704780B400AF4FF0B0431B684FF0B04237
:1039100023F48033136000BFBD4680BC704780B481
:1039200000AF4FF0B0431B6803F40033B3F5003F22
:1039300001D1012300E000231846BD4680BC70473A
:1039400080B400AF4FF0B0431B684FF0B04243F477
:103950008073136000BFBD4680BC704780B400AF69
:103960004FF0B0431B684FF0B04223F480731360F4
:1039700000BFBD4680BC704780B400AF4FF0B0437D
:103980001B6803F48063B3F5806F01D1012300E06D
:1039900000231846BD4680BC704780B483B000AF9A
:1039A00078604FF0B0435B6823F0FE427B681B06F3
:1039B0004FF0B04113434B6000BF0C37BD4680BC95
:1039C000704780B400AF4FF0B043D3F8903003F0AD
:1039D0000203022B01D1012300E000231846BD465B
:1039E00080BC704780B400AF4FF0B043D3F8943040
:1039F0004FF0B04243F00103C2F8943000BFBD461F
:103A000080BC704780B400AF4FF0B043D3F894301F
:103A10004FF0B04223F00103C2F8943000BFBD461E
:103A200080BC704780B400AF4FF0B043D3F89430FF
:103A300003F00203022B01D1012300E0002318460A
:103A4000BD4680BC704780B400AF4FF0B0431B68E8
:103A50004FF0B04243F00103136000BFBD4680BC8D
:103A6000704780B400AF4FF0B0431B684FF0B042D6
:103A700023F00103136000BFBD4680BC704780B4D3
:103A800000AF4FF0B0431B6803F00203022B01D1DB
:103A9000012300E000231846BD4680BC704780B477
:103AA00000AF4FF0B0431B6803F00803082B01D1AF
:103AB000012300E000231846BD4680BC704780B457
:103AC00000AF4FF0B0431B6803F0F0031846BD464B
:103AD00080BC704780B400AF4FF0B043D3F894304F
:103AE00003F470631846BD4680BC704780B483B051
:103AF00000AF78604FF0B0435B6823F47F427B688F
:103B00001B024FF0B04113434B6000BF0C37BD4662
:103B100080BC704780B483B000AF78604FF0B04392
:103B20009B6823F003024FF0B0417B6813438B6026
:103B300000BF0C37BD4680BC704780B400AF4FF06B
:103B4000B0439B6803F00C031846BD4680BC704729
:103B500080B483B000AF78604FF0B0439B6823F02F
:103B6000F0024FF0B0417B6813438B6000BF0C370D
:103B7000BD4680BC704780B483B000AF78604FF022
:103B8000B043D3F8083123F00F027B681B094FF0D4
:103B9000B0411343C1F8083100BF0C37BD4680BCAB
:103BA000704780B483B000AF78604FF0B0439B683B
:103BB00023F4E0624FF0B0417B6813438B6000BF99
:103BC0000C37BD4680BC704780B483B000AF7860CE
:103BD0004FF0B0439B6823F460524FF0B0417B68D4
:103BE00013438B6000BF0C37BD4680BC704780B468
:103BF00000AF4FF0B0439B6803F0F0031846BD469A
:103C000080BC704780B400AF4FF0B043D3F80831A8
:103C10001B0103F0F0031846BD4680BC704780B41A
:103C200000AF4FF0B0439B6803F4E0631846BD4615
:103C300080BC704780B400AF4FF0B0439B6803F482
:103C400060531846BD4680BC704780B400AF4FF04B
:103C5000B0431B684FF0B04243F08073136000BF65
:103C6000BD4680BC704780B400AF4FF0B0431B68C6
:103C70004FF0B04223F08073136000BFBD4680BC9C
:103C8000704780B400AF4FF0B0431B6803F000737F
:103C9000B3F1007F01D1012300E000231846BD46A7
:103CA00080BC704780B400AF4FF0B043DB681B0AA4
:103CB00003F07F031846BD4680BC704780B400AF58
:103CC0004FF0B043DB6803F060431846BD4680BC4C
:103CD000704780B400AF4FF0B043DB6803F070036F
:103CE0001846BD4680BC704780B400AF4FF0B0436B
:103CF000DB6803F003031846BD4680BC704780B400
:103D000000AF4FF0B0439B6803F48033B3F5803FBE
:103D100001D1012300E000231846BD4680BC704756
:103D200080B400AF4FF0B043D3F8083103F48033D0
:103D3000B3F5803F01D1012300E000231846BD46C2
:103D400080BC704780B400AF4FF0B0439B6803F471
:103D50000033B3F5003F01D1012300E000231846F2
:103D6000BD4680BC704780B400AF4FF0B0439B6845
:103D700003F48023B3F5802F01D1012300E0002359
:103D80001846BD4680BC704780B588B000AF7860EB
:103D90007B68002B01D101236FE3FFF7CEFEF861B2
:103DA000FFF7A2FFB8617B681B6803F02003002BBC
:103DB00000F0C480FB69002B05D0FB690C2B76D189
:103DC000BB69012B73D17B681B6A002B01D10123D6
:103DD00053E37B689A6A4FF0B0431B6803F0080313
:103DE000002B05D04FF0B0431B6803F0F00306E052
:103DF0004FF0B043D3F894301B0903F0F003934223
:103E000022D27B689B6A184600F03CFD0346002BDB
:103E100001D0012331E34FF0B0431B684FF0B042B3
:103E200043F0080313604FF0B0431B6823F0F00227
:103E30007B689B6A4FF0B04113430B607B685B6A01
:103E40001846FFF753FE21E04FF0B0431B684FF0D8
:103E5000B04243F0080313604FF0B0431B6823F0F7
:103E6000F0027B689B6A4FF0B04113430B607B68A4
:103E70005B6A1846FFF73AFE7B689B6A184600F0BB
:103E800001FD0346002B01D00123F6E200F0C2FC45
:103E90000346A74A1360A74B1B681846FEF70CFCA5
:103EA0000346FB74FB7C002B47D0FB7CE5E27B6880
:103EB0001B6A002B2CD0FFF7C6FDFEF749FC78618A
:103EC00008E0FEF745FC02467B69D31A022B01D9B4
:103ED0000323D2E2FFF7D3FD0346002BF1D04FF0CE
:103EE000B0431B684FF0B04243F0080313604FF03B
:103EF000B0431B6823F0F0027B689B6A4FF0B0412F
:103F000013430B607B685B6A1846FFF7EFFD15E013
:103F1000FFF7A7FDFEF71CFC786108E0FEF718FC30
:103F200002467B69D31A022B01D90323A5E2FFF7CE
:103F3000A6FD0346002BF1D100E000BF7B681B68A3
:103F400003F00103002B58D0FB69082B05D0FB6957
:103F50000C2B08D1BB69032B05D17B685B68002B58
:103F60004BD1012389E24FF0B0431B6823F4801248
:103F70007B689B684FF0B04113430B607B685B68C4
:103F8000B3F5803F02D1FFF7AEFC0DE07B685B68C4
:103F9000B3F5041F04D1FFF779FCFFF7A4FC03E09D
:103FA000FFF7AFFCFFF780FC7B685B68002B12D04B
:103FB000FEF7CEFB786108E0FEF7CAFB02467B699C
:103FC000D31A642B01D9032357E2FFF7A8FC034659
:103FD000002BF1D011E0FEF7BBFB786108E0FEF7A3
:103FE000B7FB02467B69D31A642B01D9032344E251
:103FF000FFF795FC0346002BF1D17B681B6803F0AB
:104000000203002B46D0FB69042B05D0FB690C2B67
:104010000ED1BB69022B0BD17B681B69002B01D130
:1040200001232AE27B685B691846FFF7B6FC31E0A2
:104030007B681B69002B19D0FFF782FCFEF788FB19
:10404000786108E0FEF784FB02467B69D31A022BF5
:1040500001D9032311E2FFF78FFC0346002BF1D0B7
:104060007B685B691846FFF798FC13E0FFF776FC66
:10407000FEF76EFB786108E0FEF76AFB02467B699B
:10408000D31A022B01D90323F7E1FFF775FC03468E
:10409000002BF1D17B681B6803F00803002B6ED066
:1040A0007B689B69002B56D04FF0B043D3F8943017
:1040B000FB607B68DA69FB6803F010039A4231D039
:1040C000FB6803F00203002B06D0FB6803F001033A
:1040D000002B01D10123D0E1FB6803F00103002B89
:1040E00013D0FFF78FFCFEF733FB786108E0FEF793
:1040F0002FFB02467B69D31A112B01D90323BCE1A4
:10410000FFF790FC0346002BF1D14FF0B043D3F8FA
:10411000943023F010027B68DB694FF0B041134309
:10412000C1F89430FFF75EFCFEF712FB78610CE0FB
:104130000000002004000020FEF70AFB02467B6915
:10414000D31A112B01D9032397E1FFF76BFC034628
:10415000002BF1D013E0FFF755FCFEF7F9FA786178
:1041600008E0FEF7F5FA02467B69D31A112B01D954
:10417000032382E1FFF756FC0346002BF1D17B6855
:104180001B6803F00403002B00F0D880FFF76CFBE2
:104190000346002B13D1FFF74DFBFEF7D9FA7861E8
:1041A00008E0FEF7D5FA02467B69D31A022B01D943
:1041B000032362E1FFF758FB0346002BF1D07B6835
:1041C000DB68002B7BD07B68DB68852B03D07B68AA
:1041D000DB68052B09D14FF0B043D3F890304FF096
:1041E000B04243F00403C2F89030FEF7B1FA7861B0
:1041F0004FF0B043D3F890304FF0B04243F001039A
:10420000C2F890300AE0FEF7A3FA02467B69D31A9F
:1042100041F28832934201D903232EE1FFF7D1FB0B
:104220000346002BEFD07B68DB68812B03D07B68D3
:10423000DB68852B21D1FEF78BFA78614FF0B04314
:10424000D3F890304FF0B04243F08003C2F8903082
:104250000AE0FEF77DFA02467B69D31A41F2883202
:10426000934201D9032308E14FF0B043D3F89030D3
:1042700003F40063002BECD060E0FEF769FA78618C
:104280004FF0B043D3F890304FF0B04223F08003AA
:10429000C2F890300AE0FEF75BFA02467B69D31A57
:1042A00041F28832934201D90323E6E04FF0B04354
:1042B000D3F8903003F40063002BECD13EE0FEF71E
:1042C00047FA78614FF0B043D3F890304FF0B042E6
:1042D00023F08003C2F890300AE0FEF739FA024674
:1042E0007B69D31A41F28832934201D90323C4E097
:1042F0004FF0B043D3F8903003F40063002BECD1BF
:10430000FEF726FA78614FF0B043D3F890304FF0C3
:10431000B04223F00103C2F890300AE0FEF718FA29
:1043200002467B69D31A41F28832934201D90323B2
:10433000A3E0FFF746FB0346002BEFD17B68DB6A67
:10434000002B00F09980FB690C2B6CD07B68DB6A3A
:10435000022B4BD1FFF787FCFEF7FAF9786108E0F2
:10436000FEF7F6F902467B69D31A0A2B01D903231B
:1043700083E0FFF786FC0346002BF1D14FF0B043FA
:10438000DA68404B13407A68116B7A68526B1143BC
:104390007A68926B120211437A68D26B11437A6881
:1043A000126C11437A68526C0A434FF0B0411343C8
:1043B000CB60FFF74AFC4FF0B043DB684FF0B042F0
:1043C00043F08053D360FEF7C3F9786108E0FEF74D
:1043D000BFF902467B69D31A0A2B01D903234CE0AB
:1043E000FFF74FFC0346002BF1D045E0FFF73BFC05
:1043F000FEF7AEF9786108E0FEF7AAF902467B699C
:10440000D31A0A2B01D9032337E0FFF73AFC0346FE
:10441000002BF1D14FF0B043DA684FF0B0411A4BA6
:104420001340CB6028E07B68DB6A012B01D10123BC
:1044300023E04FF0B043DB68BB61BB6903F00302CC
:104440007B681B6B9A4215D1BB6903F070027B68D5
:104450005B6B9A420ED1BB6903F4FE427B689B6B97
:104460001B029A4206D1BB6903F060427B685B6C19
:104470009A4201D0012300E0002318462037BD46B0
:1044800080BD00BF8C80C111FCFFFEEE80B584B002
:1044900000AF786039607B68002B01D101230FE108
:1044A000894B1B6803F007033A689A421BD9864B75
:1044B0001B6823F0070284493B6813430B60FEF737
:1044C00047F9F86008E0FEF743F90246FB68D31AA3
:1044D000022B01D90323F3E07B4B1B6803F0070396
:1044E0003A689A42EFD17B681B6803F00203002B05
:1044F00016D07B689B681846FFF72AFBFEF728F961
:10450000F86008E0FEF724F90246FB68D31A022B94
:1045100001D90323D4E0FFF7F2FB0346002BF1D0CF
:104520007B681B6803F04003002B16D07B685B6937
:104530001846FFF720FBFEF70BF9F86008E0FEF7DE
:1045400007F90246FB68D31A022B01D90323B7E00F
:10455000FFF7E6FB0346002BF1D07B681B6803F0F6
:104560000403002B16D07B68DB681846FFF719FBA5
:10457000FEF7EEF8F86008E0FEF7EAF80246FB689E
:10458000D31A022B01D903239AE0FFF7DBFB034682
:10459000002BF1D07B681B6803F00803002B17D0B9
:1045A0007B681B69DB001846FFF70EFBFEF7D0F8AF
:1045B000F86008E0FEF7CCF80246FB68D31A022B3D
:1045C00001D903237CE0FFF7CEFB0346002BF1D09B
:1045D0007B681B6803F00103002B43D07B685B689A
:1045E000022B06D1FFF79BF90346002B1ED10123B6
:1045F00066E07B685B68032B06D1FFF742FB03464E
:10460000002B13D101235BE07B685B68002B06D194
:10461000FFF735FA0346002B08D1012350E0FFF7DE
:10462000ABF90346002B01D1012349E07B685B68AD
:104630001846FFF76FFAFEF78BF8F8600AE0FEF70E
:1046400087F80246FB68D31A41F28832934201D9B7
:10465000032335E0FFF771FA02467B685B689B0035
:104660009A42ECD1184B1B6803F007033A689A4250
:104670001BD2154B1B6823F0070213493B681343F9
:104680000B60FEF765F8F86008E0FEF761F8024697
:10469000FB68D31A022B01D9032311E00A4B1B68D4
:1046A00003F007033A689A42EFD100F0B3F80346EB
:1046B000064A1360064B1B681846FDF7FDFF0346CC
:1046C00018461037BD4680BD00400058000000204D
:1046D0000400002090B587B000AF00237B61002369
:1046E0003B61FFF72AFAB860FFF7FEFA7860BB6813
:1046F000002B05D0BB680C2B39D17B68012B36D140
:10470000FFF7CDF90346002B15D1FFF7C8F9034693
:10471000012B06D1FFF7D3F903461B0A03F00F0361
:1047200005E0FFF7D7F903461B0A03F00F03364AEB
:1047300052F8233014E0FFF7B2F90346012B06D1FB
:10474000FFF7BDF903461B0903F00F0305E0FFF770
:10475000C1F903461B0903F00F032B4A52F823301B
:104760003B61BB68002B15D13B697B6112E0BB68E4
:10477000042B02D1254B7B610CE0BB68082B09D1CF
:10478000FFF7A0F80346012B02D1204B7B6101E02B
:104790001F4B7B61FFF7D1F903460C2B2FD1FFF79D
:1047A000A3FA78607B68022B03D07B68032B03D0CD
:1047B0000DE0164BFB600DE0FFF784F80346012B7C
:1047C00002D1124BFB6005E0114BFB6002E03B693C
:1047D000FB6000BFFFF766FA0246FB6803FB02F4CA
:1047E000FFF777FA03461B090133B4FBF3F4FFF735
:1047F00065FA03465B0F0133B4FBF3F37B617B691E
:1048000018461C37BD4690BD0CA400080024F400D7
:104810000048E80198B500AFFFF75CFF0446FFF7DA
:10482000E6F903461B0903F00F03034A52F823304D
:10483000B4FBF3F3184698BDACA3000898B500AFDD
:10484000FFF7E8FF0446FFF7EAF903461B0A034AAD
:1048500052F8233024FA03F3184698BDECA300085D
:1048600098B500AFFFF7D6FF0446FFF7E3F903461C
:10487000DB0A034A52F8233024FA03F3184698BDA2
:10488000ECA3000890B585B000AF78607B681B0989
:1048900003F00F03104A52F82330FB60FFF7B2F920
:1048A00003461B0903F00F030C4A52F82330FA6841
:1048B000B2FBF3F3BB60BB68094AA2FB03239C0C69
:1048C000FEF7C6FF03461946204600F00BF80346E4
:1048D00018461437BD4690BD0CA40008ACA30008D0
:1048E00083DE1B4380B58EB000AF786039603A4AF2
:1048F00007F1200392E80300186004331980374A57
:1049000007F1180392E80300186004331980344A51
:1049100007F10C0307CA83E8070000237B633B68A9
:10492000B3F5007F1BD100233B6314E03B6B5B00BE
:1049300038333B4433F8183C1A467B68934207D817
:104940003B6B9B0038333B4453F82C3C7B6321E0AA
:104950003B6B01333B633B6B022BE7D91AE000232F
:10496000FB6214E0FB6A5B0038333B4433F8203CC5
:104970001A467B68934207D8FB6A9B0038333B4456
:1049800053F82C3C7B6305E0FB6A0133FB62FB6A56
:10499000022BE7D9134B1B6823F0070211497B6BED
:1049A00013430B60FDF7D4FEB86208E0FDF7D0FEBC
:1049B0000246BB6AD31A022B01D9032307E0094B35
:1049C0001B6803F007037A6B9A42EFD10023184665
:1049D0003837BD4680BD00BF90A3000898A30008EB
:1049E000A0A300080040005880B400AF4FF0B043CF
:1049F000D3F8903003F00203022B01D1012300E031
:104A000000231846BD4680BC704780B483B000AF19
:104A100078604FF0B043D3F888207B681B0CDB43F1
:104A20001A407B689BB24FF0B0411343C1F8883005
:104A300000BF0C37BD4680BC704780B483B000AF68
:104A400078604FF0B043D3F8883023F440724FF0D1
:104A5000B0417B681343C1F8883000BF0C37BD46B6
:104A600080BC704780B483B000AF78604FF0B04333
:104A7000D3F8883023F440624FF0B0417B68134391
:104A8000C1F8883000BF0C37BD4680BC704780B489
:104A900083B000AF78604FF0B043D3F888207B68D4
:104AA0001B0903F47F23DB431A407B681B0103F4DB
:104AB0007F234FF0B0411343C1F8883000BF0C375B
:104AC000BD4680BC704780B483B000AF78604FF0C3
:104AD000B043D3F888207B681B0C1B04DB431A40CF
:104AE0007B681B044FF0B0411343C1F8883000BF0E
:104AF0000C37BD4680BC704780B483B000AF78608F
:104B00004FF0B043D3F8883023F040424FF0B0412B
:104B10007B681343C1F8883000BF0C37BD4680BCAA
:104B2000704780B483B000AF78604FF0B043D3F8E3
:104B3000883023F040524FF0B0417B681343C1F8F6
:104B4000883000BF0C37BD4680BC704780B483B04E
:104B500000AF78604FF0B043D3F8903023F4407248
:104B60004FF0B0417B681343C1F8903000BF0C3761
:104B7000BD4680BC704780B400AF4FF0B043D3F85F
:104B8000903003F440731846BD4680BC704780B433
:104B900000AF4FF0B043D3F890304FF0B04243F441
:104BA0008033C2F8903000BFBD4680BC704780B4EF
:104BB00000AF4FF0B043D3F890304FF0B04223F441
:104BC0008033C2F8903000BFBD4680BC7047000003
:104BD00080B586B000AF786000237B610023FB7452
:104BE0000023BB747B681B6803F48033002B58D010
:104BF000FEF720FEFDF7ACFDF86009E0FDF7A8FD2B
:104C00000246FB68D31A022B02D90323FB7406E089
:104C10007B4B1B6803F48073B3F5807FEED1FB7C84
:104C2000002B3CD1FFF7A7FF02467B685B6B9A42E3
:104C30000FD04FF0B043D3F8903023F440737B6132
:104C4000FFF7A5FFFFF7B3FF4FF0B0427B69C2F853
:104C500090307B6903F00203002B14D0FDF778FD40
:104C6000F8600BE0FDF774FD0246FB68D31A41F2D1
:104C70008832934202D90323FB7404E0FFF7B4FEA9
:104C80000346012BEED1FB7C002B05D17B685B6BCF
:104C90001846FFF75BFF04E0FB7CBB7401E0FB7C84
:104CA000BB747B681B6803F00103002B04D07B6896
:104CB0005B681846FFF7A9FE7B681B6803F00203D8
:104CC000002B04D07B689B681846FFF79EFE7B682C
:104CD0001B6803F02003002B04D07B681B69184677
:104CE000FFF7C0FE7B681B6803F40073002B04D041
:104CF0007B681B6A1846FFF7E6FE7B681B6803F4B7
:104D00008063002B04D07B685B6A1846FFF7DBFEEC
:104D10007B681B6803F40063002B04D07B689B6AEC
:104D20001846FFF7D0FE7B681B6803F04003002B9A
:104D300004D07B685B691846FFF7A9FE7B681B6897
:104D400003F08003002B04D07B689B691846FFF7B3
:104D50009EFE7B681B6803F48073002B04D07B6885
:104D6000DB691846FFF793FE7B681B6803F01003AE
:104D7000002B11D07B68DB681846FFF75EFE7B686E
:104D8000DB68B3F5807F07D14FF0B043DB684FF0AD
:104D9000B04243F08073D3607B681B6803F4004328
:104DA000002B10D07B681B6B1846FFF7A5FE7B68B5
:104DB0001B6B002B07D14FF0B043DB684FF0B042C4
:104DC00043F08073D3607B681B6803F48043002B3F
:104DD00011D07B68DB6A1846FFF7A3FE7B68DB6AAD
:104DE000B3F1005F07D14FF0B043DB684FF0B04242
:104DF00043F48033D360BB7C18461837BD4680BD72
:104E00000004005880B584B000AF78607B68002B48
:104E100001D10123C6E07B685B6A002B08D17B6867
:104E20005B68B3F5827F09D07B680022DA6105E018
:104E30007B6800221A617B6800225A617B6893F8C4
:104E40005D30DBB2002B06D17B68002283F85C204A
:104E50007868FDF757FA7B68022283F85D207B684B
:104E60001B681A687B681B6822F040021A607B6826
:104E7000DB68B3F5E06F02D90023FB6002E04FF47A
:104E80008053FB607B68DB68B3F5706F07D07B688D
:104E9000DB68B3F5E06F02D07B6800229A627B6822
:104EA0005B6803F482727B689B6803F404431A43D3
:104EB0007B681B6903F002031A437B685B6903F09C
:104EC00001031A437B689B6903F400731A437B68F0
:104ED000DB6903F038031A437B681B6A03F0800325
:104EE00042EA03017B689B6A03F400527B681B68FB
:104EF0000A431A607B689B6AB3F5005F1BD17B682D
:104F00001B6B002B0BD17B68DB68B3F5E06F03D91B
:104F10007B6802221A6302E07B6801221A637B68C5
:104F20001B6B022B07D17B681B681A687B681B68A8
:104F300042F400621A607B689B691B0C03F0040258
:104F40007B685B6A03F010031A437B685B6B03F0BA
:104F500008031A437B68DB6803F4706342EA0301C9
:104F6000FB6803F480527B681B680A435A607B68C5
:104F70009B6AB3F5005F05D17B68DA6A7B681B68C2
:104F800092B21A617B681B68DA697B681B6822F43D
:104F90000062DA617B6800221A667B68012283F86E
:104FA0005D20002318461037BD4680BD80B483B015
:104FB00000AF78604FF0B043D3F888207B681A4088
:104FC0007B681B04134318460C37BD4680BC7047F2
:104FD00080B483B000AF78604FF0B043D3F888203E
:104FE0007B68134018460C37BD4680BC704780B5BF
:104FF00082B000AF78607B68002B01D1012342E0D2
:105000007B68D3F88830002B06D17B68002283F8B8
:1050100084207868FDF7BCF97B682422C3F88820D7
:105020007B681B681A687B681B6822F001021A60A3
:10503000786800F02DF80346012B01D1012322E00E
:105040007B689B6A002B02D0786800F095FA7B6839
:105050001B685A687B681B6822F490425A607B6820
:105060001B689A687B681B6822F02A029A607B683A
:105070001B681A687B681B6842F001021A60786836
:1050800000F01BFB034618460837BD4680BD0000F4
:105090002DE9B04F8CB000AF7861002387F82A303B
:1050A0007B699A687B691B691A437B695B691A4350
:1050B0007B69DB691343FB627B691B681A68944B4D
:1050C00013407A691268F96A0B4313607B691B68A5
:1050D0005B6823F440517B69DA687B691B680A438B
:1050E0005A607B699B69FB627B691B68894A9342B2
:1050F00004D07B691B6AFA6A1343FB627B691B68F5
:105100009B6823F06E4323F430637A691268F96A6E
:105110000B4393607B691B68DB6A23F00F017B699B
:105120005A6A7B691B680A43DA627B691B687A4AA0
:10513000934227D10320FFF739FF0346A3F54033FD
:10514000032B1BD801A252F823F000BF5D510008C9
:105150006D5100086551000875510008012387F85A
:105160002B3080E0022387F82B307CE0042387F883
:105170002B3078E0082387F82B3074E0102387F871
:105180002B3070E07B691B68644A934238D10C2055
:10519000FFF70CFF0346A3F540230C2B2CD801A2EC
:1051A00052F823F0D9510008F9510008F9510008CC
:1051B000F9510008E9510008F9510008F9510008B7
:1051C000F9510008E1510008F9510008F9510008AF
:1051D000F9510008F1510008002387F82B3042E014
:1051E000022387F82B303EE0042387F82B303AE087
:1051F000082387F82B3036E0102387F82B3032E075
:105200007B691B68434A93422AD14FF44060FFF701
:10521000DFFE0346B3F5406F1AD0B3F5406F1BD8DD
:10522000B3F5006F0CD0B3F5006F15D8002B03D089
:10523000B3F5806F08D00FE0002387F82B3012E021
:10524000022387F82B300EE0042387F82B300AE086
:10525000082387F82B3006E0102387F82B3002E074
:10526000102387F82B307B691B682A4A934240F051
:10527000A48097F82B30082B23D801A252F823F0F2
:10528000A5520008C3520008AD520008C3520008DE
:10529000B3520008C3520008C3520008C3520008AA
:1052A000BB520008FFF7CAFA786210E01C4B7B6221
:1052B0000DE0FFF70FFA786209E04FF400437B62DC
:1052C00005E000237B62012387F82A3000BF7B6A58
:1052D000002B00F037817B695B6A124A32F8133089
:1052E0001A467B6AB3FBF2F3BB617B695A681346CB
:1052F0005B001344BA699A4205D37B695B681B0360
:10530000BA699A4210D9012387F82A301AE100BFFE
:10531000F369FFCF008000400038014000440040A6
:105320000024F4004CA400087B6A0022BB60FA60F1
:105330007B695B6A8E4A32F813309BB200223B6075
:105340007A60D7E90023D7E90201FBF7C5FC0246E2
:105350000B46104619464FF000024FF000030B02B7
:1053600043EA1063020279694968490800200C4643
:10537000054612EB040843EB05097B695B680022D4
:105380009A46934652465B4640464946FBF7A4FC84
:1053900002460B4613463B623B6AB3F5407F08D397
:1053A0003B6AB3F5801F04D27B691B683A6ADA60F6
:1053B000C8E0012387F82A30C4E07B69DB69B3F5D4
:1053C000004F67D197F82B30082B28D801A252F84C
:1053D00023F000BFF95300080154000809540008E5
:1053E0001F5400080F5400081F5400081F540008E1
:1053F0001F54000817540008FFF720FA786214E0E1
:10540000FFF72EFA786210E05A4B7B620DE0FFF74F
:1054100061F9786209E04FF400437B6205E0002304
:105420007B62012387F82A3000BF7B6A002B00F0E3
:1054300089807B695B6A4E4A32F813301A467B6A70
:10544000B3FBF2F35A007B695B685B081A447B6923
:105450005B68B2FBF3F33B623B6A0F2B16D93B6AE6
:10546000B3F5803F12D23B6A9BB223F00F03FB835C
:105470003B6A5B089BB203F007039AB2FB8B1343B2
:10548000FB837B691B68FA8BDA605BE0012387F89A
:105490002A3057E097F82B30082B28D801A252F871
:1054A00023F000BFC9540008D1540008D9540008A3
:1054B000EF540008DF540008EF540008EF540008D0
:1054C000EF540008E7540008FFF7B8F9786214E0D9
:1054D000FFF7C6F9786210E0264B7B620DE0FFF71C
:1054E000F9F8786209E04FF400437B6205E000239D
:1054F0007B62012387F82A3000BF7B6A002B21D012
:105500007B695B6A1A4A32F813301A467B6AB3FB2E
:10551000F2F27B695B685B081A447B695B68B2FBEB
:10552000F3F33B623B6A0F2B09D93B6AB3F5803F2B
:1055300005D23B6A9AB27B691B68DA6002E00123FC
:1055400087F82A307B690122A3F86A207B6901224F
:10555000A3F868207B6900225A677B6900229A675A
:1055600097F82A3018463037BD46BDE8B08F00BFE7
:105570004CA400080024F40080B483B000AF78602D
:105580007B689B6A03F00103002B0AD07B681B68D1
:105590005B6823F400317B68DA6A7B681B680A4326
:1055A0005A607B689B6A03F00203002B0AD07B6879
:1055B0001B685B6823F480317B681A6B7B681B680F
:1055C0000A435A607B689B6A03F00403002B0AD0ED
:1055D0007B681B685B6823F480217B685A6B7B685F
:1055E0001B680A435A607B689B6A03F00803002B20
:1055F0000AD07B681B685B6823F400417B689A6B68
:105600007B681B680A435A607B689B6A03F010033F
:10561000002B0AD07B681B689B6823F480517B6851
:10562000DA6B7B681B680A439A607B689B6A03F0AD
:105630002003002B0AD07B681B689B6823F4005171
:105640007B681A6C7B681B680A439A607B689B6A5C
:1056500003F04003002B1AD07B681B685B6823F4BF
:1056600080117B685A6C7B681B680A435A607B68B0
:105670005B6CB3F5801F0AD17B681B685B6823F401
:10568000C0017B689A6C7B681B680A435A607B6820
:105690009B6A03F08003002B0AD07B681B685B6861
:1056A00023F400217B68DA6C7B681B680A435A602C
:1056B00000BF0C37BD4680BC704780B586B002AFD6
:1056C00078607B680022C3F89020FDF741F8F8600D
:1056D0007B681B681B6803F00803082B0ED16FF072
:1056E0007E430093FB6800224FF40011786800F0BD
:1056F00032F80346002B01D0032328E07B681B68A7
:105700001B6803F00403042B0ED16FF07E4300935B
:10571000FB6800224FF48001786800F01CF8034613
:10572000002B01D0032312E07B682022C3F88820DD
:105730007B682022C3F88C207B680022DA667B68B5
:1057400000221A677B68002283F884200023184611
:105750001037BD4680BD80B59CB000AFF860B96021
:105760003B601346FB71A9E0BB6FB3F1FF3F00F054
:10577000A580FCF7EDFF02463B68D31ABA6F9A4248
:1057800002D3BB6F002B40D1FB681B683B653B6DB0
:1057900053E8003FFB64FB6C23F4D0737B66FB682B
:1057A0001B681A467B6EFB65BA65B96DFA6D41E8F8
:1057B00000237B657B6D002BE6D1FB681B680833FB
:1057C000FB63FB6B53E8003FBB63BB6B23F0010340
:1057D0003B66FB681B6808333A6EBA647B64796C7D
:1057E000BA6C41E800233B643B6C002BE5D1FB68BD
:1057F0002022C3F88820FB682022C3F88C20FB6895
:10580000002283F88420032369E0FB681B681B687F
:1058100003F00403002B51D0FB681B68DB6903F421
:105820000063B3F5006F49D1FB681B684FF4006259
:105830001A62FB681B68BB62BB6A53E8003F7B626D
:105840007B6A23F4D073FB66FB681B681A46FB6E09
:105850007B633A63396B7A6B41E80023FB62FB6A36
:10586000002BE6D1FB681B6808337B617B6953E83A
:10587000003F3B613B6923F00103BB66FB681B688B
:105880000833BA6E3A62FB61F9693A6A41E800236B
:10589000BB61BB69002BE5D1FB682022C3F88820DF
:1058A000FB682022C3F88C20FB682022C3F89020DC
:1058B000FB68002283F88420032310E0FB681B6848
:1058C000DA69BB681340BA689A420CBF012300230F
:1058D000DBB21A46FB799A423FF446AF00231846E2
:1058E0007037BD4680BD80B485B000AF78607B68FE
:1058F00093F88430012B01D1022327E07B68012239
:1059000083F884207B682422C3F888207B681B6886
:105910001B68FB607B681B681A687B681B6822F049
:1059200001021A60FB6823F00053FB607B680022D1
:105930005A667B681B68FA681A607B682022C3F885
:1059400088207B68002283F88420002318461437BF
:10595000BD4680BC704780B584B000AF78603960C8
:105960007B6893F88430012B01D102232DE07B6802
:10597000012283F884207B682422C3F888207B6876
:105980001B681B68FB607B681B681A687B681B6868
:1059900022F001021A607B681B689B6823F060415B
:1059A0007B681B683A680A439A60786800F050F890
:1059B0007B681B68FA681A607B682022C3F888201D
:1059C0007B68002283F88420002318461037BD46E8
:1059D00080BD80B584B000AF786039607B6893F893
:1059E0008430012B01D102232DE07B68012283F852
:1059F00084207B682422C3F888207B681B681B688E
:105A0000FB607B681B681A687B681B6822F00102D8
:105A10001A607B681B689B6823F060617B681B6869
:105A20003A680A439A60786800F012F87B681B684D
:105A3000FA681A607B682022C3F888207B680022FD
:105A400083F88420002318461037BD4680BD00002F
:105A500080B485B000AF78607B685B6E002B08D1A6
:105A60007B680122A3F86A207B680122A3F86820E2
:105A700031E00823FB730823BB737B681B689B68BA
:105A80005B0EDBB203F007037B737B681B689B68CC
:105A90005B0FDBB203F007033B73BB7B3A7B104920
:105AA0008A5C02FB03F33A7B0E498A5C93FBF2F3B8
:105AB0009AB27B68A3F86A20FB7B7A7B08498A5CF0
:105AC00002FB03F37A7B07498A5C93FBF2F39AB2F9
:105AD0007B68A3F8682000BF1437BD4680BC7047C0
